{
  "_format": "hh-sol-artifact-1",
  "contractName": "LOR",
  "sourceName": "contracts/LOR.sol",
  "abi": [
    {
      "inputs": [
        {
          "internalType": "uint256",
          "name": "_id",
          "type": "uint256"
        }
      ],
      "name": "approveRecommendation",
      "outputs": [],
      "stateMutability": "nonpayable",
      "type": "function"
    },
    {
      "inputs": [
        {
          "internalType": "uint256",
          "name": "_id",
          "type": "uint256"
        }
      ],
      "name": "getStudentDetails",
      "outputs": [
        {
          "internalType": "string",
          "name": "",
          "type": "string"
        },
        {
          "internalType": "string",
          "name": "",
          "type": "string"
        },
        {
          "internalType": "string",
          "name": "",
          "type": "string"
        },
        {
          "internalType": "bool",
          "name": "",
          "type": "bool"
        }
      ],
      "stateMutability": "view",
      "type": "function"
    },
    {
      "inputs": [
        {
          "internalType": "string",
          "name": "_name",
          "type": "string"
        },
        {
          "internalType": "string",
          "name": "_university",
          "type": "string"
        },
        {
          "internalType": "string",
          "name": "_program",
          "type": "string"
        }
      ],
      "name": "requestRecommendation",
      "outputs": [],
      "stateMutability": "nonpayable",
      "type": "function"
    },
    {
      "inputs": [],
      "name": "studentCount",
      "outputs": [
        {
          "internalType": "uint256",
          "name": "",
          "type": "uint256"
        }
      ],
      "stateMutability": "view",
      "type": "function"
    },
    {
      "inputs": [
        {
          "internalType": "uint256",
          "name": "",
          "type": "uint256"
        }
      ],
      "name": "students",
      "outputs": [
        {
          "internalType": "string",
          "name": "name",
          "type": "string"
        },
        {
          "internalType": "string",
          "name": "university",
          "type": "string"
        },
        {
          "internalType": "string",
          "name": "program",
          "type": "string"
        },
        {
          "internalType": "bool",
          "name": "approved",
          "type": "bool"
        }
      ],
      "stateMutability": "view",
      "type": "function"
    }
  ],
  "bytecode": "0x6080604052348015600f57600080fd5b50610dd88061001f6000396000f3fe608060405234801561001057600080fd5b50600436106100575760003560e01c806306ead22e1461005c5780634bb553101461008f578063519e2fd4146100ab57806386a9b364146100c7578063e581f9ee146100fa575b600080fd5b610076600480360381019061007191906106a9565b610118565b6040516100869493929190610781565b60405180910390f35b6100a960048036038101906100a491906106a9565b6102ed565b005b6100c560048036038101906100c09190610910565b610381565b005b6100e160048036038101906100dc91906106a9565b61043d565b6040516100f19493929190610781565b60405180910390f35b610102610659565b60405161010f91906109c6565b60405180910390f35b600060205280600052604060002060009150905080600001805461013b90610a10565b80601f016020809104026020016040519081016040528092919081815260200182805461016790610a10565b80156101b45780601f10610189576101008083540402835291602001916101b4565b820191906000526020600020905b81548152906001019060200180831161019757829003601f168201915b5050505050908060010180546101c990610a10565b80601f01602080910402602001604051908101604052809291908181526020018280546101f590610a10565b80156102425780601f1061021757610100808354040283529160200191610242565b820191906000526020600020905b81548152906001019060200180831161022557829003601f168201915b50505050509080600201805461025790610a10565b80601f016020809104026020016040519081016040528092919081815260200182805461028390610a10565b80156102d05780601f106102a5576101008083540402835291602001916102d0565b820191906000526020600020905b8154815290600101906020018083116102b357829003601f168201915b5050505050908060030160009054906101000a900460ff16905084565b60008082815260200190815260200160002060030160009054906101000a900460ff1615610350576040517f08c379a000000000000000000000000000000000000000000000000000000000815260040161034790610a8d565b60405180910390fd5b600160008083815260200190815260200160002060030160006101000a81548160ff02191690831515021790555050565b60006001600081548092919061039690610adc565b91905055905060405180608001604052808581526020018481526020018381526020016000151581525060008083815260200190815260200160002060008201518160000190816103e79190610cd0565b5060208201518160010190816103fd9190610cd0565b5060408201518160020190816104139190610cd0565b5060608201518160030160006101000a81548160ff02191690831515021790555090505050505050565b6060806060600080600086815260200190815260200160002060000160008087815260200190815260200160002060010160008088815260200190815260200160002060020160008089815260200190815260200160002060030160009054906101000a900460ff168380546104b290610a10565b80601f01602080910402602001604051908101604052809291908181526020018280546104de90610a10565b801561052b5780601f106105005761010080835404028352916020019161052b565b820191906000526020600020905b81548152906001019060200180831161050e57829003601f168201915b5050505050935082805461053e90610a10565b80601f016020809104026020016040519081016040528092919081815260200182805461056a90610a10565b80156105b75780601f1061058c576101008083540402835291602001916105b7565b820191906000526020600020905b81548152906001019060200180831161059a57829003601f168201915b505050505092508180546105ca90610a10565b80601f01602080910402602001604051908101604052809291908181526020018280546105f690610a10565b80156106435780601f1061061857610100808354040283529160200191610643565b820191906000526020600020905b81548152906001019060200180831161062657829003601f168201915b5050505050915093509350935093509193509193565b60015481565b6000604051905090565b600080fd5b600080fd5b6000819050919050565b61068681610673565b811461069157600080fd5b50565b6000813590506106a38161067d565b92915050565b6000602082840312156106bf576106be610669565b5b60006106cd84828501610694565b91505092915050565b600081519050919050565b600082825260208201905092915050565b60005b838110156107105780820151818401526020810190506106f5565b60008484015250505050565b6000601f19601f8301169050919050565b6000610738826106d6565b61074281856106e1565b93506107528185602086016106f2565b61075b8161071c565b840191505092915050565b60008115159050919050565b61077b81610766565b82525050565b6000608082019050818103600083015261079b818761072d565b905081810360208301526107af818661072d565b905081810360408301526107c3818561072d565b90506107d26060830184610772565b95945050505050565b600080fd5b600080fd5b7f4e487b7100000000000000000000000000000000000000000000000000000000600052604160045260246000fd5b61081d8261071c565b810181811067ffffffffffffffff8211171561083c5761083b6107e5565b5b80604052505050565b600061084f61065f565b905061085b8282610814565b919050565b600067ffffffffffffffff82111561087b5761087a6107e5565b5b6108848261071c565b9050602081019050919050565b82818337600083830152505050565b60006108b36108ae84610860565b610845565b9050828152602081018484840111156108cf576108ce6107e0565b5b6108da848285610891565b509392505050565b600082601f8301126108f7576108f66107db565b5b81356109078482602086016108a0565b91505092915050565b60008060006060848603121561092957610928610669565b5b600084013567ffffffffffffffff8111156109475761094661066e565b5b610953868287016108e2565b935050602084013567ffffffffffffffff8111156109745761097361066e565b5b610980868287016108e2565b925050604084013567ffffffffffffffff8111156109a1576109a061066e565b5b6109ad868287016108e2565b9150509250925092565b6109c081610673565b82525050565b60006020820190506109db60008301846109b7565b92915050565b7f4e487b7100000000000000000000000000000000000000000000000000000000600052602260045260246000fd5b60006002820490506001821680610a2857607f821691505b602082108103610a3b57610a3a6109e1565b5b50919050565b7f5265636f6d6d656e646174696f6e20616c726561647920617070726f76656400600082015250565b6000610a77601f836106e1565b9150610a8282610a41565b602082019050919050565b60006020820190508181036000830152610aa681610a6a565b9050919050565b7f4e487b7100000000000000000000000000000000000000000000000000000000600052601160045260246000fd5b6000610ae782610673565b91507fffffffffffffffffffffffffffffffffffffffffffffffffffffffffffffffff8203610b1957610b18610aad565b5b600182019050919050565b60008190508160005260206000209050919050565b60006020601f8301049050919050565b600082821b905092915050565b600060088302610b867fffffffffffffffffffffffffffffffffffffffffffffffffffffffffffffffff82610b49565b610b908683610b49565b95508019841693508086168417925050509392505050565b6000819050919050565b6000610bcd610bc8610bc384610673565b610ba8565b610673565b9050919050565b6000819050919050565b610be783610bb2565b610bfb610bf382610bd4565b848454610b56565b825550505050565b600090565b610c10610c03565b610c1b818484610bde565b505050565b5b81811015610c3f57610c34600082610c08565b600181019050610c21565b5050565b601f821115610c8457610c5581610b24565b610c5e84610b39565b81016020851015610c6d578190505b610c81610c7985610b39565b830182610c20565b50505b505050565b600082821c905092915050565b6000610ca760001984600802610c89565b1980831691505092915050565b6000610cc08383610c96565b9150826002028217905092915050565b610cd9826106d6565b67ffffffffffffffff811115610cf257610cf16107e5565b5b610cfc8254610a10565b610d07828285610c43565b600060209050601f831160018114610d3a5760008415610d28578287015190505b610d328582610cb4565b865550610d9a565b601f198416610d4886610b24565b60005b82811015610d7057848901518255600182019150602085019450602081019050610d4b565b86831015610d8d5784890151610d89601f891682610c96565b8355505b6001600288020188555050505b50505050505056fea264697066735822122083549d3ca8b31408cb71f85ae35a07796f3d2d5405df2b28a09e2506527a94a864736f6c634300081c0033",
  "linkReferences": {},
  "deployedLinkReferences": {}
}