{
  "_format": "hh-sol-artifact-1",
  "contractName": "LOR",
  "sourceName": "contracts/LOR.sol",
  "abi": [
    {
      "inputs": [
        {
          "internalType": "string",
          "name": "_name",
          "type": "string"
        },
        {
          "internalType": "string",
          "name": "_course",
          "type": "string"
        },
        {
          "internalType": "string",
          "name": "_email",
          "type": "string"
        }
      ],
      "name": "addStudent",
      "outputs": [],
      "stateMutability": "nonpayable",
      "type": "function"
    },
    {
      "inputs": [
        {
          "internalType": "uint256",
          "name": "studentId",
          "type": "uint256"
        }
      ],
      "name": "approveRecommendation",
      "outputs": [],
      "stateMutability": "nonpayable",
      "type": "function"
    },
    {
      "inputs": [
        {
          "internalType": "uint256",
          "name": "studentId",
          "type": "uint256"
        }
      ],
      "name": "getStudent",
      "outputs": [
        {
          "internalType": "string",
          "name": "name",
          "type": "string"
        },
        {
          "internalType": "string",
          "name": "university",
          "type": "string"
        },
        {
          "internalType": "string",
          "name": "program",
          "type": "string"
        },
        {
          "internalType": "bool",
          "name": "approved",
          "type": "bool"
        },
        {
          "internalType": "string",
          "name": "course",
          "type": "string"
        },
        {
          "internalType": "string",
          "name": "email",
          "type": "string"
        },
        {
          "internalType": "bool",
          "name": "requested",
          "type": "bool"
        }
      ],
      "stateMutability": "view",
      "type": "function"
    },
    {
      "inputs": [
        {
          "internalType": "uint256",
          "name": "_id",
          "type": "uint256"
        }
      ],
      "name": "getStudentDetails",
      "outputs": [
        {
          "internalType": "string",
          "name": "",
          "type": "string"
        },
        {
          "internalType": "string",
          "name": "",
          "type": "string"
        },
        {
          "internalType": "string",
          "name": "",
          "type": "string"
        },
        {
          "internalType": "bool",
          "name": "",
          "type": "bool"
        },
        {
          "internalType": "string",
          "name": "",
          "type": "string"
        },
        {
          "internalType": "string",
          "name": "",
          "type": "string"
        },
        {
          "internalType": "bool",
          "name": "",
          "type": "bool"
        }
      ],
      "stateMutability": "view",
      "type": "function"
    },
    {
      "inputs": [
        {
          "internalType": "string",
          "name": "_name",
          "type": "string"
        },
        {
          "internalType": "string",
          "name": "_university",
          "type": "string"
        },
        {
          "internalType": "string",
          "name": "_program",
          "type": "string"
        }
      ],
      "name": "requestRecommendation",
      "outputs": [],
      "stateMutability": "nonpayable",
      "type": "function"
    },
    {
      "inputs": [
        {
          "internalType": "uint256",
          "name": "studentId",
          "type": "uint256"
        }
      ],
      "name": "requestRecommendation",
      "outputs": [],
      "stateMutability": "nonpayable",
      "type": "function"
    },
    {
      "inputs": [],
      "name": "studentCount",
      "outputs": [
        {
          "internalType": "uint256",
          "name": "",
          "type": "uint256"
        }
      ],
      "stateMutability": "view",
      "type": "function"
    },
    {
      "inputs": [
        {
          "internalType": "uint256",
          "name": "",
          "type": "uint256"
        }
      ],
      "name": "students",
      "outputs": [
        {
          "internalType": "string",
          "name": "name",
          "type": "string"
        },
        {
          "internalType": "string",
          "name": "university",
          "type": "string"
        },
        {
          "internalType": "string",
          "name": "program",
          "type": "string"
        },
        {
          "internalType": "bool",
          "name": "approved",
          "type": "bool"
        },
        {
          "internalType": "string",
          "name": "course",
          "type": "string"
        },
        {
          "internalType": "string",
          "name": "email",
          "type": "string"
        },
        {
          "internalType": "bool",
          "name": "requested",
          "type": "bool"
        }
      ],
      "stateMutability": "view",
      "type": "function"
    }
  ],
  "bytecode": "0x6080604052348015600f57600080fd5b5061178c8061001f6000396000f3fe608060405234801561001057600080fd5b50600436106100885760003560e01c806386a9b3641161005b57806386a9b36414610131578063aa518b9014610167578063b84ec96a14610183578063e581f9ee1461019f57610088565b806306ead22e1461008d5780634bb55310146100c3578063519e2fd4146100df578063642f9163146100fb575b600080fd5b6100a760048036038101906100a29190610fb9565b6101bd565b6040516100ba9796959493929190611091565b60405180910390f35b6100dd60048036038101906100d89190610fb9565b6104c1565b005b6100f960048036038101906100f49190611258565b610555565b005b61011560048036038101906101109190610fb9565b610690565b6040516101289796959493929190611091565b60405180910390f35b61014b60048036038101906101469190610fb9565b610a09565b60405161015e9796959493929190611091565b60405180910390f35b610181600480360381019061017c9190611258565b610d99565b005b61019d60048036038101906101989190610fb9565b610ed4565b005b6101a7610f69565b6040516101b4919061130e565b60405180910390f35b60006020528060005260406000206000915090508060000180546101e090611358565b80601f016020809104026020016040519081016040528092919081815260200182805461020c90611358565b80156102595780601f1061022e57610100808354040283529160200191610259565b820191906000526020600020905b81548152906001019060200180831161023c57829003601f168201915b50505050509080600101805461026e90611358565b80601f016020809104026020016040519081016040528092919081815260200182805461029a90611358565b80156102e75780601f106102bc576101008083540402835291602001916102e7565b820191906000526020600020905b8154815290600101906020018083116102ca57829003601f168201915b5050505050908060020180546102fc90611358565b80601f016020809104026020016040519081016040528092919081815260200182805461032890611358565b80156103755780601f1061034a57610100808354040283529160200191610375565b820191906000526020600020905b81548152906001019060200180831161035857829003601f168201915b5050505050908060030160009054906101000a900460ff169080600401805461039d90611358565b80601f01602080910402602001604051908101604052809291908181526020018280546103c990611358565b80156104165780601f106103eb57610100808354040283529160200191610416565b820191906000526020600020905b8154815290600101906020018083116103f957829003601f168201915b50505050509080600501805461042b90611358565b80601f016020809104026020016040519081016040528092919081815260200182805461045790611358565b80156104a45780601f10610479576101008083540402835291602001916104a4565b820191906000526020600020905b81548152906001019060200180831161048757829003601f168201915b5050505050908060060160009054906101000a900460ff16905087565b60008082815260200190815260200160002060030160009054906101000a900460ff1615610524576040517f08c379a000000000000000000000000000000000000000000000000000000000815260040161051b906113d5565b60405180910390fd5b600160008083815260200190815260200160002060030160006101000a81548160ff02191690831515021790555050565b60006001600081548092919061056a90611424565b9190505590506040518060e001604052808581526020018481526020018381526020016000151581526020016040518060200160405280600081525081526020016040518060200160405280600081525081526020016001151581525060008083815260200190815260200160002060008201518160000190816105ee9190611618565b5060208201518160010190816106049190611618565b50604082015181600201908161061a9190611618565b5060608201518160030160006101000a81548160ff02191690831515021790555060808201518160040190816106509190611618565b5060a08201518160050190816106669190611618565b5060c08201518160060160006101000a81548160ff02191690831515021790555090505050505050565b606080606060006060806000806000808a81526020019081526020016000206040518060e00160405290816000820180546106ca90611358565b80601f01602080910402602001604051908101604052809291908181526020018280546106f690611358565b80156107435780601f1061071857610100808354040283529160200191610743565b820191906000526020600020905b81548152906001019060200180831161072657829003601f168201915b5050505050815260200160018201805461075c90611358565b80601f016020809104026020016040519081016040528092919081815260200182805461078890611358565b80156107d55780601f106107aa576101008083540402835291602001916107d5565b820191906000526020600020905b8154815290600101906020018083116107b857829003601f168201915b505050505081526020016002820180546107ee90611358565b80601f016020809104026020016040519081016040528092919081815260200182805461081a90611358565b80156108675780601f1061083c57610100808354040283529160200191610867565b820191906000526020600020905b81548152906001019060200180831161084a57829003601f168201915b505050505081526020016003820160009054906101000a900460ff1615151515815260200160048201805461089b90611358565b80601f01602080910402602001604051908101604052809291908181526020018280546108c790611358565b80156109145780601f106108e957610100808354040283529160200191610914565b820191906000526020600020905b8154815290600101906020018083116108f757829003601f168201915b5050505050815260200160058201805461092d90611358565b80601f016020809104026020016040519081016040528092919081815260200182805461095990611358565b80156109a65780601f1061097b576101008083540402835291602001916109a6565b820191906000526020600020905b81548152906001019060200180831161098957829003601f168201915b505050505081526020016006820160009054906101000a900460ff1615151515815250509050806000015181602001518260400151836060015184608001518560a001518660c00151975097509750975097509750975050919395979092949650565b6060806060600060608060008060008981526020019081526020016000206000016000808a81526020019081526020016000206001016000808b81526020019081526020016000206002016000808c815260200190815260200160002060030160009054906101000a900460ff166000808d81526020019081526020016000206004016000808e81526020019081526020016000206005016000808f815260200190815260200160002060060160009054906101000a900460ff16868054610ad090611358565b80601f0160208091040260200160405190810160405280929190818152602001828054610afc90611358565b8015610b495780601f10610b1e57610100808354040283529160200191610b49565b820191906000526020600020905b815481529060010190602001808311610b2c57829003601f168201915b50505050509650858054610b5c90611358565b80601f0160208091040260200160405190810160405280929190818152602001828054610b8890611358565b8015610bd55780601f10610baa57610100808354040283529160200191610bd5565b820191906000526020600020905b815481529060010190602001808311610bb857829003601f168201915b50505050509550848054610be890611358565b80601f0160208091040260200160405190810160405280929190818152602001828054610c1490611358565b8015610c615780601f10610c3657610100808354040283529160200191610c61565b820191906000526020600020905b815481529060010190602001808311610c4457829003601f168201915b50505050509450828054610c7490611358565b80601f0160208091040260200160405190810160405280929190818152602001828054610ca090611358565b8015610ced5780601f10610cc257610100808354040283529160200191610ced565b820191906000526020600020905b815481529060010190602001808311610cd057829003601f168201915b50505050509250818054610d0090611358565b80601f0160208091040260200160405190810160405280929190818152602001828054610d2c90611358565b8015610d795780601f10610d4e57610100808354040283529160200191610d79565b820191906000526020600020905b815481529060010190602001808311610d5c57829003601f168201915b505050505091509650965096509650965096509650919395979092949650565b600060016000815480929190610dae90611424565b9190505590506040518060e00160405280858152602001604051806020016040528060008152508152602001604051806020016040528060008152508152602001600015158152602001848152602001838152602001600015158152506000808381526020019081526020016000206000820151816000019081610e329190611618565b506020820151816001019081610e489190611618565b506040820151816002019081610e5e9190611618565b5060608201518160030160006101000a81548160ff0219169083151502179055506080820151816004019081610e949190611618565b5060a0820151816005019081610eaa9190611618565b5060c08201518160060160006101000a81548160ff02191690831515021790555090505050505050565b60008060008381526020019081526020016000206000018054610ef690611358565b905003610f38576040517f08c379a0000000000000000000000000000000000000000000000000000000008152600401610f2f90611736565b60405180910390fd5b600160008083815260200190815260200160002060060160006101000a81548160ff02191690831515021790555050565b60015481565b6000604051905090565b600080fd5b600080fd5b6000819050919050565b610f9681610f83565b8114610fa157600080fd5b50565b600081359050610fb381610f8d565b92915050565b600060208284031215610fcf57610fce610f79565b5b6000610fdd84828501610fa4565b91505092915050565b600081519050919050565b600082825260208201905092915050565b60005b83811015611020578082015181840152602081019050611005565b60008484015250505050565b6000601f19601f8301169050919050565b600061104882610fe6565b6110528185610ff1565b9350611062818560208601611002565b61106b8161102c565b840191505092915050565b60008115159050919050565b61108b81611076565b82525050565b600060e08201905081810360008301526110ab818a61103d565b905081810360208301526110bf818961103d565b905081810360408301526110d3818861103d565b90506110e26060830187611082565b81810360808301526110f4818661103d565b905081810360a0830152611108818561103d565b905061111760c0830184611082565b98975050505050505050565b600080fd5b600080fd5b7f4e487b7100000000000000000000000000000000000000000000000000000000600052604160045260246000fd5b6111658261102c565b810181811067ffffffffffffffff821117156111845761118361112d565b5b80604052505050565b6000611197610f6f565b90506111a3828261115c565b919050565b600067ffffffffffffffff8211156111c3576111c261112d565b5b6111cc8261102c565b9050602081019050919050565b82818337600083830152505050565b60006111fb6111f6846111a8565b61118d565b90508281526020810184848401111561121757611216611128565b5b6112228482856111d9565b509392505050565b600082601f83011261123f5761123e611123565b5b813561124f8482602086016111e8565b91505092915050565b60008060006060848603121561127157611270610f79565b5b600084013567ffffffffffffffff81111561128f5761128e610f7e565b5b61129b8682870161122a565b935050602084013567ffffffffffffffff8111156112bc576112bb610f7e565b5b6112c88682870161122a565b925050604084013567ffffffffffffffff8111156112e9576112e8610f7e565b5b6112f58682870161122a565b9150509250925092565b61130881610f83565b82525050565b600060208201905061132360008301846112ff565b92915050565b7f4e487b7100000000000000000000000000000000000000000000000000000000600052602260045260246000fd5b6000600282049050600182168061137057607f821691505b60208210810361138357611382611329565b5b50919050565b7f5265636f6d6d656e646174696f6e20616c726561647920617070726f76656400600082015250565b60006113bf601f83610ff1565b91506113ca82611389565b602082019050919050565b600060208201905081810360008301526113ee816113b2565b9050919050565b7f4e487b7100000000000000000000000000000000000000000000000000000000600052601160045260246000fd5b600061142f82610f83565b91507fffffffffffffffffffffffffffffffffffffffffffffffffffffffffffffffff8203611461576114606113f5565b5b600182019050919050565b60008190508160005260206000209050919050565b60006020601f8301049050919050565b600082821b905092915050565b6000600883026114ce7fffffffffffffffffffffffffffffffffffffffffffffffffffffffffffffffff82611491565b6114d88683611491565b95508019841693508086168417925050509392505050565b6000819050919050565b600061151561151061150b84610f83565b6114f0565b610f83565b9050919050565b6000819050919050565b61152f836114fa565b61154361153b8261151c565b84845461149e565b825550505050565b600090565b61155861154b565b611563818484611526565b505050565b5b818110156115875761157c600082611550565b600181019050611569565b5050565b601f8211156115cc5761159d8161146c565b6115a684611481565b810160208510156115b5578190505b6115c96115c185611481565b830182611568565b50505b505050565b600082821c905092915050565b60006115ef600019846008026115d1565b1980831691505092915050565b600061160883836115de565b9150826002028217905092915050565b61162182610fe6565b67ffffffffffffffff81111561163a5761163961112d565b5b6116448254611358565b61164f82828561158b565b600060209050601f8311600181146116825760008415611670578287015190505b61167a85826115fc565b8655506116e2565b601f1984166116908661146c565b60005b828110156116b857848901518255600182019150602085019450602081019050611693565b868310156116d557848901516116d1601f8916826115de565b8355505b6001600288020188555050505b505050505050565b7f53747564656e7420646f6573206e6f7420657869737400000000000000000000600082015250565b6000611720601683610ff1565b915061172b826116ea565b602082019050919050565b6000602082019050818103600083015261174f81611713565b905091905056fea2646970667358221220a896ce413e8a75a9e1802dd1d185a09445882c4dbb97b2cfd798026414739c1b64736f6c634300081c0033",
  "linkReferences": {},
  "deployedLinkReferences": {}
}